{"contracts/hello-world.sol":{"HelloWorld":{"abi":[{"inputs":[{"internalType":"string","name":"initMessage","type":"string"}],"stateMutability":"nonpayable","type":"constructor"},{"anonymous":false,"inputs":[{"indexed":false,"internalType":"string","name":"oldStr","type":"string"},{"indexed":false,"internalType":"string","name":"newStr","type":"string"}],"name":"UpdatedMessages","type":"event"},{"inputs":[],"name":"message","outputs":[{"internalType":"string","name":"","type":"string"}],"stateMutability":"view","type":"function"},{"inputs":[{"internalType":"string","name":"newMessage","type":"string"}],"name":"update","outputs":[],"stateMutability":"nonpayable","type":"function"}],"evm":{"bytecode":{"linkReferences":{},"object":"608060405234801561001057600080fd5b50604051610c7f380380610c7f833981810160405281019061003291906101bd565b80600090816100419190610427565b50506104f9565b6000604051905090565b600080fd5b600080fd5b600080fd5b600080fd5b6000601f19601f8301169050919050565b7f4e487b7100000000000000000000000000000000000000000000000000000000600052604160045260246000fd5b6100af82610066565b810181811067ffffffffffffffff821117156100ce576100cd610077565b5b80604052505050565b60006100e1610048565b90506100ed82826100a6565b919050565b600067ffffffffffffffff82111561010d5761010c610077565b5b61011682610066565b9050602081019050919050565b60005b83811015610141578082015181840152602081019050610126565b60008484015250505050565b600061016061015b846100f2565b6100d7565b90508281526020810184848401111561017c5761017b610061565b5b610187848285610123565b509392505050565b600082601f8301126101a4576101a361005c565b5b81516101b484826020860161014d565b91505092915050565b6000602082840312156101d3576101d2610052565b5b600082015167ffffffffffffffff8111156101f1576101f0610057565b5b6101fd8482850161018f565b91505092915050565b600081519050919050565b7f4e487b7100000000000000000000000000000000000000000000000000000000600052602260045260246000fd5b6000600282049050600182168061025857607f821691505b60208210810361026b5761026a610211565b5b50919050565b60008190508160005260206000209050919050565b60006020601f8301049050919050565b600082821b905092915050565b6000600883026102d37fffffffffffffffffffffffffffffffffffffffffffffffffffffffffffffffff82610296565b6102dd8683610296565b95508019841693508086168417925050509392505050565b6000819050919050565b6000819050919050565b600061032461031f61031a846102f5565b6102ff565b6102f5565b9050919050565b6000819050919050565b61033e83610309565b61035261034a8261032b565b8484546102a3565b825550505050565b600090565b61036761035a565b610372818484610335565b505050565b5b818110156103965761038b60008261035f565b600181019050610378565b5050565b601f8211156103db576103ac81610271565b6103b584610286565b810160208510156103c4578190505b6103d86103d085610286565b830182610377565b50505b505050565b600082821c905092915050565b60006103fe600019846008026103e0565b1980831691505092915050565b600061041783836103ed565b9150826002028217905092915050565b61043082610206565b67ffffffffffffffff81111561044957610448610077565b5b6104538254610240565b61045e82828561039a565b600060209050601f831160018114610491576000841561047f578287015190505b610489858261040b565b8655506104f1565b601f19841661049f86610271565b60005b828110156104c7578489015182556001820191506020850194506020810190506104a2565b868310156104e457848901516104e0601f8916826103ed565b8355505b6001600288020188555050505b505050505050565b610777806105086000396000f3fe608060405234801561001057600080fd5b50600436106100365760003560e01c80633d7403a31461003b578063e21f37ce14610057575b600080fd5b61005560048036038101906100509190610338565b610075565b005b61005f610150565b60405161006c9190610400565b60405180910390f35b600080805461008390610451565b80601f01602080910402602001604051908101604052809291908181526020018280546100af90610451565b80156100fc5780601f106100d1576101008083540402835291602001916100fc565b820191906000526020600020905b8154815290600101906020018083116100df57829003601f168201915b5050505050905081600090816101129190610638565b507ff91d506d7335e83e4869a58cd98e0557cdcef6f507ba1e52725521305626d05b818360405161014492919061070a565b60405180910390a15050565b6000805461015d90610451565b80601f016020809104026020016040519081016040528092919081815260200182805461018990610451565b80156101d65780601f106101ab576101008083540402835291602001916101d6565b820191906000526020600020905b8154815290600101906020018083116101b957829003601f168201915b505050505081565b6000604051905090565b600080fd5b600080fd5b600080fd5b600080fd5b6000601f19601f8301169050919050565b7f4e487b7100000000000000000000000000000000000000000000000000000000600052604160045260246000fd5b610245826101fc565b810181811067ffffffffffffffff821117156102645761026361020d565b5b80604052505050565b60006102776101de565b9050610283828261023c565b919050565b600067ffffffffffffffff8211156102a3576102a261020d565b5b6102ac826101fc565b9050602081019050919050565b82818337600083830152505050565b60006102db6102d684610288565b61026d565b9050828152602081018484840111156102f7576102f66101f7565b5b6103028482856102b9565b509392505050565b600082601f83011261031f5761031e6101f2565b5b813561032f8482602086016102c8565b91505092915050565b60006020828403121561034e5761034d6101e8565b5b600082013567ffffffffffffffff81111561036c5761036b6101ed565b5b6103788482850161030a565b91505092915050565b600081519050919050565b600082825260208201905092915050565b60005b838110156103bb5780820151818401526020810190506103a0565b60008484015250505050565b60006103d282610381565b6103dc818561038c565b93506103ec81856020860161039d565b6103f5816101fc565b840191505092915050565b6000602082019050818103600083015261041a81846103c7565b905092915050565b7f4e487b7100000000000000000000000000000000000000000000000000000000600052602260045260246000fd5b6000600282049050600182168061046957607f821691505b60208210810361047c5761047b610422565b5b50919050565b60008190508160005260206000209050919050565b60006020601f8301049050919050565b600082821b905092915050565b6000600883026104e47fffffffffffffffffffffffffffffffffffffffffffffffffffffffffffffffff826104a7565b6104ee86836104a7565b95508019841693508086168417925050509392505050565b6000819050919050565b6000819050919050565b600061053561053061052b84610506565b610510565b610506565b9050919050565b6000819050919050565b61054f8361051a565b61056361055b8261053c565b8484546104b4565b825550505050565b600090565b61057861056b565b610583818484610546565b505050565b5b818110156105a75761059c600082610570565b600181019050610589565b5050565b601f8211156105ec576105bd81610482565b6105c684610497565b810160208510156105d5578190505b6105e96105e185610497565b830182610588565b50505b505050565b600082821c905092915050565b600061060f600019846008026105f1565b1980831691505092915050565b600061062883836105fe565b9150826002028217905092915050565b61064182610381565b67ffffffffffffffff81111561065a5761065961020d565b5b6106648254610451565b61066f8282856105ab565b600060209050601f8311600181146106a25760008415610690578287015190505b61069a858261061c565b865550610702565b601f1984166106b086610482565b60005b828110156106d8578489015182556001820191506020850194506020810190506106b3565b868310156106f557848901516106f1601f8916826105fe565b8355505b6001600288020188555050505b505050505050565b6000604082019050818103600083015261072481856103c7565b9050818103602083015261073881846103c7565b9050939250505056fea26469706673582212200643f7d84bea4dcdf1f4033ed99ac0e456d09f2d2677680a389750300e0c9e9864736f6c634300081c0033","opcodes":"PUSH1 0x80 PUSH1 0x40 MSTORE CALLVALUE DUP1 ISZERO PUSH2 0x10 JUMPI PUSH1 0x0 DUP1 REVERT JUMPDEST POP PUSH1 0x40 MLOAD PUSH2 0xC7F CODESIZE SUB DUP1 PUSH2 0xC7F DUP4 CODECOPY DUP2 DUP2 ADD PUSH1 0x40 MSTORE DUP2 ADD SWAP1 PUSH2 0x32 SWAP2 SWAP1 PUSH2 0x1BD JUMP JUMPDEST DUP1 PUSH1 0x0 SWAP1 DUP2 PUSH2 0x41 SWAP2 SWAP1 PUSH2 0x427 JUMP JUMPDEST POP POP PUSH2 0x4F9 JUMP JUMPDEST PUSH1 0x0 PUSH1 0x40 MLOAD SWAP1 POP SWAP1 JUMP JUMPDEST PUSH1 0x0 DUP1 REVERT JUMPDEST PUSH1 0x0 DUP1 REVERT JUMPDEST PUSH1 0x0 DUP1 REVERT JUMPDEST PUSH1 0x0 DUP1 REVERT JUMPDEST PUSH1 0x0 PUSH1 0x1F NOT PUSH1 0x1F DUP4 ADD AND SWAP1 POP SWAP2 SWAP1 POP JUMP JUMPDEST PUSH32 0x4E487B7100000000000000000000000000000000000000000000000000000000 PUSH1 0x0 MSTORE PUSH1 0x41 PUSH1 0x4 MSTORE PUSH1 0x24 PUSH1 0x0 REVERT JUMPDEST PUSH2 0xAF DUP3 PUSH2 0x66 JUMP JUMPDEST DUP2 ADD DUP2 DUP2 LT PUSH8 0xFFFFFFFFFFFFFFFF DUP3 GT OR ISZERO PUSH2 0xCE JUMPI PUSH2 0xCD PUSH2 0x77 JUMP JUMPDEST JUMPDEST DUP1 PUSH1 0x40 MSTORE POP POP POP JUMP JUMPDEST PUSH1 0x0 PUSH2 0xE1 PUSH2 0x48 JUMP JUMPDEST SWAP1 POP PUSH2 0xED DUP3 DUP3 PUSH2 0xA6 JUMP JUMPDEST SWAP2 SWAP1 POP JUMP JUMPDEST PUSH1 0x0 PUSH8 0xFFFFFFFFFFFFFFFF DUP3 GT ISZERO PUSH2 0x10D JUMPI PUSH2 0x10C PUSH2 0x77 JUMP JUMPDEST JUMPDEST PUSH2 0x116 DUP3 PUSH2 0x66 JUMP JUMPDEST SWAP1 POP PUSH1 0x20 DUP2 ADD SWAP1 POP SWAP2 SWAP1 POP JUMP JUMPDEST PUSH1 0x0 JUMPDEST DUP4 DUP2 LT ISZERO PUSH2 0x141 JUMPI DUP1 DUP3 ADD MLOAD DUP2 DUP5 ADD MSTORE PUSH1 0x20 DUP2 ADD SWAP1 POP PUSH2 0x126 JUMP JUMPDEST PUSH1 0x0 DUP5 DUP5 ADD MSTORE POP POP POP POP JUMP JUMPDEST PUSH1 0x0 PUSH2 0x160 PUSH2 0x15B DUP5 PUSH2 0xF2 JUMP JUMPDEST PUSH2 0xD7 JUMP JUMPDEST SWAP1 POP DUP3 DUP2 MSTORE PUSH1 0x20 DUP2 ADD DUP5 DUP5 DUP5 ADD GT ISZERO PUSH2 0x17C JUMPI PUSH2 0x17B PUSH2 0x61 JUMP JUMPDEST JUMPDEST PUSH2 0x187 DUP5 DUP3 DUP6 PUSH2 0x123 JUMP JUMPDEST POP SWAP4 SWAP3 POP POP POP JUMP JUMPDEST PUSH1 0x0 DUP3 PUSH1 0x1F DUP4 ADD SLT PUSH2 0x1A4 JUMPI PUSH2 0x1A3 PUSH2 0x5C JUMP JUMPDEST JUMPDEST DUP2 MLOAD PUSH2 0x1B4 DUP5 DUP3 PUSH1 0x20 DUP7 ADD PUSH2 0x14D JUMP JUMPDEST SWAP2 POP POP SWAP3 SWAP2 POP POP JUMP JUMPDEST PUSH1 0x0 PUSH1 0x20 DUP3 DUP5 SUB SLT ISZERO PUSH2 0x1D3 JUMPI PUSH2 0x1D2 PUSH2 0x52 JUMP JUMPDEST JUMPDEST PUSH1 0x0 DUP3 ADD MLOAD PUSH8 0xFFFFFFFFFFFFFFFF DUP2 GT ISZERO PUSH2 0x1F1 JUMPI PUSH2 0x1F0 PUSH2 0x57 JUMP JUMPDEST JUMPDEST PUSH2 0x1FD DUP5 DUP3 DUP6 ADD PUSH2 0x18F JUMP JUMPDEST SWAP2 POP POP SWAP3 SWAP2 POP POP JUMP JUMPDEST PUSH1 0x0 DUP2 MLOAD SWAP1 POP SWAP2 SWAP1 POP JUMP JUMPDEST PUSH32 0x4E487B7100000000000000000000000000000000000000000000000000000000 PUSH1 0x0 MSTORE PUSH1 0x22 PUSH1 0x4 MSTORE PUSH1 0x24 PUSH1 0x0 REVERT JUMPDEST PUSH1 0x0 PUSH1 0x2 DUP3 DIV SWAP1 POP PUSH1 0x1 DUP3 AND DUP1 PUSH2 0x258 JUMPI PUSH1 0x7F DUP3 AND SWAP2 POP JUMPDEST PUSH1 0x20 DUP3 LT DUP2 SUB PUSH2 0x26B JUMPI PUSH2 0x26A PUSH2 0x211 JUMP JUMPDEST JUMPDEST POP SWAP2 SWAP1 POP JUMP JUMPDEST PUSH1 0x0 DUP2 SWAP1 POP DUP2 PUSH1 0x0 MSTORE PUSH1 0x20 PUSH1 0x0 KECCAK256 SWAP1 POP SWAP2 SWAP1 POP JUMP JUMPDEST PUSH1 0x0 PUSH1 0x20 PUSH1 0x1F DUP4 ADD DIV SWAP1 POP SWAP2 SWAP1 POP JUMP JUMPDEST PUSH1 0x0 DUP3 DUP3 SHL SWAP1 POP SWAP3 SWAP2 POP POP JUMP JUMPDEST PUSH1 0x0 PUSH1 0x8 DUP4 MUL PUSH2 0x2D3 PUSH32 0xFFFFFFFFFFFFFFFFFFFFFFFFFFFFFFFFFFFFFFFFFFFFFFFFFFFFFFFFFFFFFFFF DUP3 PUSH2 0x296 JUMP JUMPDEST PUSH2 0x2DD DUP7 DUP4 PUSH2 0x296 JUMP JUMPDEST SWAP6 POP DUP1 NOT DUP5 AND SWAP4 POP DUP1 DUP7 AND DUP5 OR SWAP3 POP POP POP SWAP4 SWAP3 POP POP POP JUMP JUMPDEST PUSH1 0x0 DUP2 SWAP1 POP SWAP2 SWAP1 POP JUMP JUMPDEST PUSH1 0x0 DUP2 SWAP1 POP SWAP2 SWAP1 POP JUMP JUMPDEST PUSH1 0x0 PUSH2 0x324 PUSH2 0x31F PUSH2 0x31A DUP5 PUSH2 0x2F5 JUMP JUMPDEST PUSH2 0x2FF JUMP JUMPDEST PUSH2 0x2F5 JUMP JUMPDEST SWAP1 POP SWAP2 SWAP1 POP JUMP JUMPDEST PUSH1 0x0 DUP2 SWAP1 POP SWAP2 SWAP1 POP JUMP JUMPDEST PUSH2 0x33E DUP4 PUSH2 0x309 JUMP JUMPDEST PUSH2 0x352 PUSH2 0x34A DUP3 PUSH2 0x32B JUMP JUMPDEST DUP5 DUP5 SLOAD PUSH2 0x2A3 JUMP JUMPDEST DUP3 SSTORE POP POP POP POP JUMP JUMPDEST PUSH1 0x0 SWAP1 JUMP JUMPDEST PUSH2 0x367 PUSH2 0x35A JUMP JUMPDEST PUSH2 0x372 DUP2 DUP5 DUP5 PUSH2 0x335 JUMP JUMPDEST POP POP POP JUMP JUMPDEST JUMPDEST DUP2 DUP2 LT ISZERO PUSH2 0x396 JUMPI PUSH2 0x38B PUSH1 0x0 DUP3 PUSH2 0x35F JUMP JUMPDEST PUSH1 0x1 DUP2 ADD SWAP1 POP PUSH2 0x378 JUMP JUMPDEST POP POP JUMP JUMPDEST PUSH1 0x1F DUP3 GT ISZERO PUSH2 0x3DB JUMPI PUSH2 0x3AC DUP2 PUSH2 0x271 JUMP JUMPDEST PUSH2 0x3B5 DUP5 PUSH2 0x286 JUMP JUMPDEST DUP2 ADD PUSH1 0x20 DUP6 LT ISZERO PUSH2 0x3C4 JUMPI DUP2 SWAP1 POP JUMPDEST PUSH2 0x3D8 PUSH2 0x3D0 DUP6 PUSH2 0x286 JUMP JUMPDEST DUP4 ADD DUP3 PUSH2 0x377 JUMP JUMPDEST POP POP JUMPDEST POP POP POP JUMP JUMPDEST PUSH1 0x0 DUP3 DUP3 SHR SWAP1 POP SWAP3 SWAP2 POP POP JUMP JUMPDEST PUSH1 0x0 PUSH2 0x3FE PUSH1 0x0 NOT DUP5 PUSH1 0x8 MUL PUSH2 0x3E0 JUMP JUMPDEST NOT DUP1 DUP4 AND SWAP2 POP POP SWAP3 SWAP2 POP POP JUMP JUMPDEST PUSH1 0x0 PUSH2 0x417 DUP4 DUP4 PUSH2 0x3ED JUMP JUMPDEST SWAP2 POP DUP3 PUSH1 0x2 MUL DUP3 OR SWAP1 POP SWAP3 SWAP2 POP POP JUMP JUMPDEST PUSH2 0x430 DUP3 PUSH2 0x206 JUMP JUMPDEST PUSH8 0xFFFFFFFFFFFFFFFF DUP2 GT ISZERO PUSH2 0x449 JUMPI PUSH2 0x448 PUSH2 0x77 JUMP JUMPDEST JUMPDEST PUSH2 0x453 DUP3 SLOAD PUSH2 0x240 JUMP JUMPDEST PUSH2 0x45E DUP3 DUP3 DUP6 PUSH2 0x39A JUMP JUMPDEST PUSH1 0x0 PUSH1 0x20 SWAP1 POP PUSH1 0x1F DUP4 GT PUSH1 0x1 DUP2 EQ PUSH2 0x491 JUMPI PUSH1 0x0 DUP5 ISZERO PUSH2 0x47F JUMPI DUP3 DUP8 ADD MLOAD SWAP1 POP JUMPDEST PUSH2 0x489 DUP6 DUP3 PUSH2 0x40B JUMP JUMPDEST DUP7 SSTORE POP PUSH2 0x4F1 JUMP JUMPDEST PUSH1 0x1F NOT DUP5 AND PUSH2 0x49F DUP7 PUSH2 0x271 JUMP JUMPDEST PUSH1 0x0 JUMPDEST DUP3 DUP2 LT ISZERO PUSH2 0x4C7 JUMPI DUP5 DUP10 ADD MLOAD DUP3 SSTORE PUSH1 0x1 DUP3 ADD SWAP2 POP PUSH1 0x20 DUP6 ADD SWAP5 POP PUSH1 0x20 DUP2 ADD SWAP1 POP PUSH2 0x4A2 JUMP JUMPDEST DUP7 DUP4 LT ISZERO PUSH2 0x4E4 JUMPI DUP5 DUP10 ADD MLOAD PUSH2 0x4E0 PUSH1 0x1F DUP10 AND DUP3 PUSH2 0x3ED JUMP JUMPDEST DUP4 SSTORE POP JUMPDEST PUSH1 0x1 PUSH1 0x2 DUP9 MUL ADD DUP9 SSTORE POP POP POP JUMPDEST POP POP POP POP POP POP JUMP JUMPDEST PUSH2 0x777 DUP1 PUSH2 0x508 PUSH1 0x0 CODECOPY PUSH1 0x0 RETURN INVALID PUSH1 0x80 PUSH1 0x40 MSTORE CALLVALUE DUP1 ISZERO PUSH2 0x10 JUMPI PUSH1 0x0 DUP1 REVERT JUMPDEST POP PUSH1 0x4 CALLDATASIZE LT PUSH2 0x36 JUMPI PUSH1 0x0 CALLDATALOAD PUSH1 0xE0 SHR DUP1 PUSH4 0x3D7403A3 EQ PUSH2 0x3B JUMPI DUP1 PUSH4 0xE21F37CE EQ PUSH2 0x57 JUMPI JUMPDEST PUSH1 0x0 DUP1 REVERT JUMPDEST PUSH2 0x55 PUSH1 0x4 DUP1 CALLDATASIZE SUB DUP2 ADD SWAP1 PUSH2 0x50 SWAP2 SWAP1 PUSH2 0x338 JUMP JUMPDEST PUSH2 0x75 JUMP JUMPDEST STOP JUMPDEST PUSH2 0x5F PUSH2 0x150 JUMP JUMPDEST PUSH1 0x40 MLOAD PUSH2 0x6C SWAP2 SWAP1 PUSH2 0x400 JUMP JUMPDEST PUSH1 0x40 MLOAD DUP1 SWAP2 SUB SWAP1 RETURN JUMPDEST PUSH1 0x0 DUP1 DUP1 SLOAD PUSH2 0x83 SWAP1 PUSH2 0x451 JUMP JUMPDEST DUP1 PUSH1 0x1F ADD PUSH1 0x20 DUP1 SWAP2 DIV MUL PUSH1 0x20 ADD PUSH1 0x40 MLOAD SWAP1 DUP2 ADD PUSH1 0x40 MSTORE DUP1 SWAP3 SWAP2 SWAP1 DUP2 DUP2 MSTORE PUSH1 0x20 ADD DUP3 DUP1 SLOAD PUSH2 0xAF SWAP1 PUSH2 0x451 JUMP JUMPDEST DUP1 ISZERO PUSH2 0xFC JUMPI DUP1 PUSH1 0x1F LT PUSH2 0xD1 JUMPI PUSH2 0x100 DUP1 DUP4 SLOAD DIV MUL DUP4 MSTORE SWAP2 PUSH1 0x20 ADD SWAP2 PUSH2 0xFC JUMP JUMPDEST DUP3 ADD SWAP2 SWAP1 PUSH1 0x0 MSTORE PUSH1 0x20 PUSH1 0x0 KECCAK256 SWAP1 JUMPDEST DUP2 SLOAD DUP2 MSTORE SWAP1 PUSH1 0x1 ADD SWAP1 PUSH1 0x20 ADD DUP1 DUP4 GT PUSH2 0xDF JUMPI DUP3 SWAP1 SUB PUSH1 0x1F AND DUP3 ADD SWAP2 JUMPDEST POP POP POP POP POP SWAP1 POP DUP2 PUSH1 0x0 SWAP1 DUP2 PUSH2 0x112 SWAP2 SWAP1 PUSH2 0x638 JUMP JUMPDEST POP PUSH32 0xF91D506D7335E83E4869A58CD98E0557CDCEF6F507BA1E52725521305626D05B DUP2 DUP4 PUSH1 0x40 MLOAD PUSH2 0x144 SWAP3 SWAP2 SWAP1 PUSH2 0x70A JUMP JUMPDEST PUSH1 0x40 MLOAD DUP1 SWAP2 SUB SWAP1 LOG1 POP POP JUMP JUMPDEST PUSH1 0x0 DUP1 SLOAD PUSH2 0x15D SWAP1 PUSH2 0x451 JUMP JUMPDEST DUP1 PUSH1 0x1F ADD PUSH1 0x20 DUP1 SWAP2 DIV MUL PUSH1 0x20 ADD PUSH1 0x40 MLOAD SWAP1 DUP2 ADD PUSH1 0x40 MSTORE DUP1 SWAP3 SWAP2 SWAP1 DUP2 DUP2 MSTORE PUSH1 0x20 ADD DUP3 DUP1 SLOAD PUSH2 0x189 SWAP1 PUSH2 0x451 JUMP JUMPDEST DUP1 ISZERO PUSH2 0x1D6 JUMPI DUP1 PUSH1 0x1F LT PUSH2 0x1AB JUMPI PUSH2 0x100 DUP1 DUP4 SLOAD DIV MUL DUP4 MSTORE SWAP2 PUSH1 0x20 ADD SWAP2 PUSH2 0x1D6 JUMP JUMPDEST DUP3 ADD SWAP2 SWAP1 PUSH1 0x0 MSTORE PUSH1 0x20 PUSH1 0x0 KECCAK256 SWAP1 JUMPDEST DUP2 SLOAD DUP2 MSTORE SWAP1 PUSH1 0x1 ADD SWAP1 PUSH1 0x20 ADD DUP1 DUP4 GT PUSH2 0x1B9 JUMPI DUP3 SWAP1 SUB PUSH1 0x1F AND DUP3 ADD SWAP2 JUMPDEST POP POP POP POP POP DUP2 JUMP JUMPDEST PUSH1 0x0 PUSH1 0x40 MLOAD SWAP1 POP SWAP1 JUMP JUMPDEST PUSH1 0x0 DUP1 REVERT JUMPDEST PUSH1 0x0 DUP1 REVERT JUMPDEST PUSH1 0x0 DUP1 REVERT JUMPDEST PUSH1 0x0 DUP1 REVERT JUMPDEST PUSH1 0x0 PUSH1 0x1F NOT PUSH1 0x1F DUP4 ADD AND SWAP1 POP SWAP2 SWAP1 POP JUMP JUMPDEST PUSH32 0x4E487B7100000000000000000000000000000000000000000000000000000000 PUSH1 0x0 MSTORE PUSH1 0x41 PUSH1 0x4 MSTORE PUSH1 0x24 PUSH1 0x0 REVERT JUMPDEST PUSH2 0x245 DUP3 PUSH2 0x1FC JUMP JUMPDEST DUP2 ADD DUP2 DUP2 LT PUSH8 0xFFFFFFFFFFFFFFFF DUP3 GT OR ISZERO PUSH2 0x264 JUMPI PUSH2 0x263 PUSH2 0x20D JUMP JUMPDEST JUMPDEST DUP1 PUSH1 0x40 MSTORE POP POP POP JUMP JUMPDEST PUSH1 0x0 PUSH2 0x277 PUSH2 0x1DE JUMP JUMPDEST SWAP1 POP PUSH2 0x283 DUP3 DUP3 PUSH2 0x23C JUMP JUMPDEST SWAP2 SWAP1 POP JUMP JUMPDEST PUSH1 0x0 PUSH8 0xFFFFFFFFFFFFFFFF DUP3 GT ISZERO PUSH2 0x2A3 JUMPI PUSH2 0x2A2 PUSH2 0x20D JUMP JUMPDEST JUMPDEST PUSH2 0x2AC DUP3 PUSH2 0x1FC JUMP JUMPDEST SWAP1 POP PUSH1 0x20 DUP2 ADD SWAP1 POP SWAP2 SWAP1 POP JUMP JUMPDEST DUP3 DUP2 DUP4 CALLDATACOPY PUSH1 0x0 DUP4 DUP4 ADD MSTORE POP POP POP JUMP JUMPDEST PUSH1 0x0 PUSH2 0x2DB PUSH2 0x2D6 DUP5 PUSH2 0x288 JUMP JUMPDEST PUSH2 0x26D JUMP JUMPDEST SWAP1 POP DUP3 DUP2 MSTORE PUSH1 0x20 DUP2 ADD DUP5 DUP5 DUP5 ADD GT ISZERO PUSH2 0x2F7 JUMPI PUSH2 0x2F6 PUSH2 0x1F7 JUMP JUMPDEST JUMPDEST PUSH2 0x302 DUP5 DUP3 DUP6 PUSH2 0x2B9 JUMP JUMPDEST POP SWAP4 SWAP3 POP POP POP JUMP JUMPDEST PUSH1 0x0 DUP3 PUSH1 0x1F DUP4 ADD SLT PUSH2 0x31F JUMPI PUSH2 0x31E PUSH2 0x1F2 JUMP JUMPDEST JUMPDEST DUP2 CALLDATALOAD PUSH2 0x32F DUP5 DUP3 PUSH1 0x20 DUP7 ADD PUSH2 0x2C8 JUMP JUMPDEST SWAP2 POP POP SWAP3 SWAP2 POP POP JUMP JUMPDEST PUSH1 0x0 PUSH1 0x20 DUP3 DUP5 SUB SLT ISZERO PUSH2 0x34E JUMPI PUSH2 0x34D PUSH2 0x1E8 JUMP JUMPDEST JUMPDEST PUSH1 0x0 DUP3 ADD CALLDATALOAD PUSH8 0xFFFFFFFFFFFFFFFF DUP2 GT ISZERO PUSH2 0x36C JUMPI PUSH2 0x36B PUSH2 0x1ED JUMP JUMPDEST JUMPDEST PUSH2 0x378 DUP5 DUP3 DUP6 ADD PUSH2 0x30A JUMP JUMPDEST SWAP2 POP POP SWAP3 SWAP2 POP POP JUMP JUMPDEST PUSH1 0x0 DUP2 MLOAD SWAP1 POP SWAP2 SWAP1 POP JUMP JUMPDEST PUSH1 0x0 DUP3 DUP3 MSTORE PUSH1 0x20 DUP3 ADD SWAP1 POP SWAP3 SWAP2 POP POP JUMP JUMPDEST PUSH1 0x0 JUMPDEST DUP4 DUP2 LT ISZERO PUSH2 0x3BB JUMPI DUP1 DUP3 ADD MLOAD DUP2 DUP5 ADD MSTORE PUSH1 0x20 DUP2 ADD SWAP1 POP PUSH2 0x3A0 JUMP JUMPDEST PUSH1 0x0 DUP5 DUP5 ADD MSTORE POP POP POP POP JUMP JUMPDEST PUSH1 0x0 PUSH2 0x3D2 DUP3 PUSH2 0x381 JUMP JUMPDEST PUSH2 0x3DC DUP2 DUP6 PUSH2 0x38C JUMP JUMPDEST SWAP4 POP PUSH2 0x3EC DUP2 DUP6 PUSH1 0x20 DUP7 ADD PUSH2 0x39D JUMP JUMPDEST PUSH2 0x3F5 DUP2 PUSH2 0x1FC JUMP JUMPDEST DUP5 ADD SWAP2 POP POP SWAP3 SWAP2 POP POP JUMP JUMPDEST PUSH1 0x0 PUSH1 0x20 DUP3 ADD SWAP1 POP DUP2 DUP2 SUB PUSH1 0x0 DUP4 ADD MSTORE PUSH2 0x41A DUP2 DUP5 PUSH2 0x3C7 JUMP JUMPDEST SWAP1 POP SWAP3 SWAP2 POP POP JUMP JUMPDEST PUSH32 0x4E487B7100000000000000000000000000000000000000000000000000000000 PUSH1 0x0 MSTORE PUSH1 0x22 PUSH1 0x4 MSTORE PUSH1 0x24 PUSH1 0x0 REVERT JUMPDEST PUSH1 0x0 PUSH1 0x2 DUP3 DIV SWAP1 POP PUSH1 0x1 DUP3 AND DUP1 PUSH2 0x469 JUMPI PUSH1 0x7F DUP3 AND SWAP2 POP JUMPDEST PUSH1 0x20 DUP3 LT DUP2 SUB PUSH2 0x47C JUMPI PUSH2 0x47B PUSH2 0x422 JUMP JUMPDEST JUMPDEST POP SWAP2 SWAP1 POP JUMP JUMPDEST PUSH1 0x0 DUP2 SWAP1 POP DUP2 PUSH1 0x0 MSTORE PUSH1 0x20 PUSH1 0x0 KECCAK256 SWAP1 POP SWAP2 SWAP1 POP JUMP JUMPDEST PUSH1 0x0 PUSH1 0x20 PUSH1 0x1F DUP4 ADD DIV SWAP1 POP SWAP2 SWAP1 POP JUMP JUMPDEST PUSH1 0x0 DUP3 DUP3 SHL SWAP1 POP SWAP3 SWAP2 POP POP JUMP JUMPDEST PUSH1 0x0 PUSH1 0x8 DUP4 MUL PUSH2 0x4E4 PUSH32 0xFFFFFFFFFFFFFFFFFFFFFFFFFFFFFFFFFFFFFFFFFFFFFFFFFFFFFFFFFFFFFFFF DUP3 PUSH2 0x4A7 JUMP JUMPDEST PUSH2 0x4EE DUP7 DUP4 PUSH2 0x4A7 JUMP JUMPDEST SWAP6 POP DUP1 NOT DUP5 AND SWAP4 POP DUP1 DUP7 AND DUP5 OR SWAP3 POP POP POP SWAP4 SWAP3 POP POP POP JUMP JUMPDEST PUSH1 0x0 DUP2 SWAP1 POP SWAP2 SWAP1 POP JUMP JUMPDEST PUSH1 0x0 DUP2 SWAP1 POP SWAP2 SWAP1 POP JUMP JUMPDEST PUSH1 0x0 PUSH2 0x535 PUSH2 0x530 PUSH2 0x52B DUP5 PUSH2 0x506 JUMP JUMPDEST PUSH2 0x510 JUMP JUMPDEST PUSH2 0x506 JUMP JUMPDEST SWAP1 POP SWAP2 SWAP1 POP JUMP JUMPDEST PUSH1 0x0 DUP2 SWAP1 POP SWAP2 SWAP1 POP JUMP JUMPDEST PUSH2 0x54F DUP4 PUSH2 0x51A JUMP JUMPDEST PUSH2 0x563 PUSH2 0x55B DUP3 PUSH2 0x53C JUMP JUMPDEST DUP5 DUP5 SLOAD PUSH2 0x4B4 JUMP JUMPDEST DUP3 SSTORE POP POP POP POP JUMP JUMPDEST PUSH1 0x0 SWAP1 JUMP JUMPDEST PUSH2 0x578 PUSH2 0x56B JUMP JUMPDEST PUSH2 0x583 DUP2 DUP5 DUP5 PUSH2 0x546 JUMP JUMPDEST POP POP POP JUMP JUMPDEST JUMPDEST DUP2 DUP2 LT ISZERO PUSH2 0x5A7 JUMPI PUSH2 0x59C PUSH1 0x0 DUP3 PUSH2 0x570 JUMP JUMPDEST PUSH1 0x1 DUP2 ADD SWAP1 POP PUSH2 0x589 JUMP JUMPDEST POP POP JUMP JUMPDEST PUSH1 0x1F DUP3 GT ISZERO PUSH2 0x5EC JUMPI PUSH2 0x5BD DUP2 PUSH2 0x482 JUMP JUMPDEST PUSH2 0x5C6 DUP5 PUSH2 0x497 JUMP JUMPDEST DUP2 ADD PUSH1 0x20 DUP6 LT ISZERO PUSH2 0x5D5 JUMPI DUP2 SWAP1 POP JUMPDEST PUSH2 0x5E9 PUSH2 0x5E1 DUP6 PUSH2 0x497 JUMP JUMPDEST DUP4 ADD DUP3 PUSH2 0x588 JUMP JUMPDEST POP POP JUMPDEST POP POP POP JUMP JUMPDEST PUSH1 0x0 DUP3 DUP3 SHR SWAP1 POP SWAP3 SWAP2 POP POP JUMP JUMPDEST PUSH1 0x0 PUSH2 0x60F PUSH1 0x0 NOT DUP5 PUSH1 0x8 MUL PUSH2 0x5F1 JUMP JUMPDEST NOT DUP1 DUP4 AND SWAP2 POP POP SWAP3 SWAP2 POP POP JUMP JUMPDEST PUSH1 0x0 PUSH2 0x628 DUP4 DUP4 PUSH2 0x5FE JUMP JUMPDEST SWAP2 POP DUP3 PUSH1 0x2 MUL DUP3 OR SWAP1 POP SWAP3 SWAP2 POP POP JUMP JUMPDEST PUSH2 0x641 DUP3 PUSH2 0x381 JUMP JUMPDEST PUSH8 0xFFFFFFFFFFFFFFFF DUP2 GT ISZERO PUSH2 0x65A JUMPI PUSH2 0x659 PUSH2 0x20D JUMP JUMPDEST JUMPDEST PUSH2 0x664 DUP3 SLOAD PUSH2 0x451 JUMP JUMPDEST PUSH2 0x66F DUP3 DUP3 DUP6 PUSH2 0x5AB JUMP JUMPDEST PUSH1 0x0 PUSH1 0x20 SWAP1 POP PUSH1 0x1F DUP4 GT PUSH1 0x1 DUP2 EQ PUSH2 0x6A2 JUMPI PUSH1 0x0 DUP5 ISZERO PUSH2 0x690 JUMPI DUP3 DUP8 ADD MLOAD SWAP1 POP JUMPDEST PUSH2 0x69A DUP6 DUP3 PUSH2 0x61C JUMP JUMPDEST DUP7 SSTORE POP PUSH2 0x702 JUMP JUMPDEST PUSH1 0x1F NOT DUP5 AND PUSH2 0x6B0 DUP7 PUSH2 0x482 JUMP JUMPDEST PUSH1 0x0 JUMPDEST DUP3 DUP2 LT ISZERO PUSH2 0x6D8 JUMPI DUP5 DUP10 ADD MLOAD DUP3 SSTORE PUSH1 0x1 DUP3 ADD SWAP2 POP PUSH1 0x20 DUP6 ADD SWAP5 POP PUSH1 0x20 DUP2 ADD SWAP1 POP PUSH2 0x6B3 JUMP JUMPDEST DUP7 DUP4 LT ISZERO PUSH2 0x6F5 JUMPI DUP5 DUP10 ADD MLOAD PUSH2 0x6F1 PUSH1 0x1F DUP10 AND DUP3 PUSH2 0x5FE JUMP JUMPDEST DUP4 SSTORE POP JUMPDEST PUSH1 0x1 PUSH1 0x2 DUP9 MUL ADD DUP9 SSTORE POP POP POP JUMPDEST POP POP POP POP POP POP JUMP JUMPDEST PUSH1 0x0 PUSH1 0x40 DUP3 ADD SWAP1 POP DUP2 DUP2 SUB PUSH1 0x0 DUP4 ADD MSTORE PUSH2 0x724 DUP2 DUP6 PUSH2 0x3C7 JUMP JUMPDEST SWAP1 POP DUP2 DUP2 SUB PUSH1 0x20 DUP4 ADD MSTORE PUSH2 0x738 DUP2 DUP5 PUSH2 0x3C7 JUMP JUMPDEST SWAP1 POP SWAP4 SWAP3 POP POP POP JUMP INVALID LOG2 PUSH5 0x6970667358 0x22 SLT KECCAK256 MOD NUMBER 0xF7 0xD8 0x4B 0xEA 0x4D 0xCD CALL DELEGATECALL SUB RETURNDATACOPY 0xD9 SWAP11 0xC0 0xE4 JUMP 0xD0 SWAP16 0x2D 0x26 PUSH24 0x680A389750300E0C9E9864736F6C634300081C0033000000 "},"methodIdentifiers":{"message()":"e21f37ce","update(string)":"3d7403a3"}}}}}