{
    "_format": "hh-sol-artifact-1",
    "contractName": "CarbonCredit",
    "sourceName": "contracts/recycle-credit-token.sol",
    "abi": [
        {
            "inputs": [],
            "stateMutability": "nonpayable",
            "type": "constructor"
        },
        {
            "anonymous": false,
            "inputs": [
                {
                    "indexed": true,
                    "internalType": "address",
                    "name": "user",
                    "type": "address"
                },
                {
                    "indexed": false,
                    "internalType": "uint256",
                    "name": "reward",
                    "type": "uint256"
                }
            ],
            "name": "QuestCompleted",
            "type": "event"
        },
        {
            "inputs": [
                {
                    "internalType": "address",
                    "name": "user",
                    "type": "address"
                },
                {
                    "internalType": "uint256",
                    "name": "amount",
                    "type": "uint256"
                }
            ],
            "name": "burn",
            "outputs": [],
            "stateMutability": "nonpayable",
            "type": "function"
        },
        {
            "inputs": [
                {
                    "internalType": "address",
                    "name": "user",
                    "type": "address"
                },
                {
                    "internalType": "uint256",
                    "name": "num",
                    "type": "uint256"
                }
            ],
            "name": "completeQuest",
            "outputs": [],
            "stateMutability": "nonpayable",
            "type": "function"
        },
        {
            "inputs": [
                {
                    "internalType": "address",
                    "name": "user",
                    "type": "address"
                }
            ],
            "name": "getBalance",
            "outputs": [
                {
                    "internalType": "uint256",
                    "name": "",
                    "type": "uint256"
                }
            ],
            "stateMutability": "view",
            "type": "function"
        },
        {
            "inputs": [],
            "name": "owner",
            "outputs": [
                {
                    "internalType": "address",
                    "name": "",
                    "type": "address"
                }
            ],
            "stateMutability": "view",
            "type": "function"
        },
        {
            "inputs": [
                {
                    "internalType": "address",
                    "name": "",
                    "type": "address"
                }
            ],
            "name": "userCoins",
            "outputs": [
                {
                    "internalType": "uint256",
                    "name": "",
                    "type": "uint256"
                }
            ],
            "stateMutability": "view",
            "type": "function"
        }
    ],
    "bytecode": "0x608060405234801561001057600080fd5b50336000806101000a81548173ffffffffffffffffffffffffffffffffffffffff021916908373ffffffffffffffffffffffffffffffffffffffff1602179055506107a4806100606000396000f3fe608060405234801561001057600080fd5b50600436106100575760003560e01c80638da5cb5b1461005c5780639dc29fac1461007a578063b8df2d6014610096578063eba53f7d146100c6578063f8b2cb4f146100e2575b600080fd5b610064610112565b60405161007191906105a4565b60405180910390f35b610094600480360381019061008f919061048a565b610136565b005b6100b060048036038101906100ab9190610461565b6102a0565b6040516100bd919061061f565b60405180910390f35b6100e060048036038101906100db919061048a565b6102b8565b005b6100fc60048036038101906100f79190610461565b6103ee565b604051610109919061061f565b60405180910390f35b60008054906101000a900473ffffffffffffffffffffffffffffffffffffffff1681565b60008054906101000a900473ffffffffffffffffffffffffffffffffffffffff1673ffffffffffffffffffffffffffffffffffffffff163373ffffffffffffffffffffffffffffffffffffffff16146101c4576040517f08c379a00000000000000000000000000000000000000000000000000000000081526004016101bb906105df565b60405180910390fd5b80600160008473ffffffffffffffffffffffffffffffffffffffff1673ffffffffffffffffffffffffffffffffffffffff168152602001908152602001600020541015610246576040517f08c379a000000000000000000000000000000000000000000000000000000000815260040161023d906105bf565b60405180910390fd5b80600160008473ffffffffffffffffffffffffffffffffffffffff1673ffffffffffffffffffffffffffffffffffffffff168152602001908152602001600020600082825461029591906106a1565b925050819055505050565b60016020528060005260406000206000915090505481565b60008054906101000a900473ffffffffffffffffffffffffffffffffffffffff1673ffffffffffffffffffffffffffffffffffffffff163373ffffffffffffffffffffffffffffffffffffffff1614610346576040517f08c379a000000000000000000000000000000000000000000000000000000000815260040161033d906105ff565b60405180910390fd5b80600160008473ffffffffffffffffffffffffffffffffffffffff1673ffffffffffffffffffffffffffffffffffffffff1681526020019081526020016000206000828254610395919061064b565b925050819055508173ffffffffffffffffffffffffffffffffffffffff167f6618f11353f68847dc28cc4b36a04270fab5e356fa35386e6315ba7ff205a633826040516103e2919061061f565b60405180910390a25050565b6000600160008373ffffffffffffffffffffffffffffffffffffffff1673ffffffffffffffffffffffffffffffffffffffff168152602001908152602001600020549050919050565b60008135905061044681610740565b92915050565b60008135905061045b81610757565b92915050565b60006020828403121561047357600080fd5b600061048184828501610437565b91505092915050565b6000806040838503121561049d57600080fd5b60006104ab85828601610437565b92505060206104bc8582860161044c565b9150509250929050565b6104cf816106d5565b82525050565b60006104e260148361063a565b91507f496e73756666696369656e742062616c616e63650000000000000000000000006000830152602082019050919050565b6000610522601a8361063a565b91507f4f6e6c792061646d696e2063616e206275726e20746f6b656e730000000000006000830152602082019050919050565b600061056260158361063a565b91507f4f6e6c792061646d696e2063616e2072657761726400000000000000000000006000830152602082019050919050565b61059e81610707565b82525050565b60006020820190506105b960008301846104c6565b92915050565b600060208201905081810360008301526105d8816104d5565b9050919050565b600060208201905081810360008301526105f881610515565b9050919050565b6000602082019050818103600083015261061881610555565b9050919050565b60006020820190506106346000830184610595565b92915050565b600082825260208201905092915050565b600061065682610707565b915061066183610707565b9250827fffffffffffffffffffffffffffffffffffffffffffffffffffffffffffffffff0382111561069657610695610711565b5b828201905092915050565b60006106ac82610707565b91506106b783610707565b9250828210156106ca576106c9610711565b5b828203905092915050565b60006106e0826106e7565b9050919050565b600073ffffffffffffffffffffffffffffffffffffffff82169050919050565b6000819050919050565b7f4e487b7100000000000000000000000000000000000000000000000000000000600052601160045260246000fd5b610749816106d5565b811461075457600080fd5b50565b61076081610707565b811461076b57600080fd5b5056fea2646970667358221220b41ade131b20bf4be50fca9b76b612545f50162ea509db5d7d9bf5fbd43d42ba64736f6c63430008000033",
    "linkReferences": {},
    "deployedLinkReferences": {}
}