{
    "_format": "hh-sol-artifact-1",
    "contractName": "CarbonCredit",
    "sourceName": "contracts/recycle-credit-token.sol",
    "abi": [
        {
            "inputs": [],
            "stateMutability": "nonpayable",
            "type": "constructor"
        },
        {
            "anonymous": false,
            "inputs": [
                {
                    "indexed": true,
                    "internalType": "address",
                    "name": "user",
                    "type": "address"
                },
                {
                    "indexed": false,
                    "internalType": "uint256",
                    "name": "reward",
                    "type": "uint256"
                }
            ],
            "name": "QuestCompleted",
            "type": "event"
        },
        {
            "inputs": [
                {
                    "internalType": "address",
                    "name": "user",
                    "type": "address"
                },
                {
                    "internalType": "uint256",
                    "name": "num",
                    "type": "uint256"
                }
            ],
            "name": "completeQuest",
            "outputs": [],
            "stateMutability": "nonpayable",
            "type": "function"
        },
        {
            "inputs": [
                {
                    "internalType": "address",
                    "name": "user",
                    "type": "address"
                }
            ],
            "name": "getBalance",
            "outputs": [
                {
                    "internalType": "uint256",
                    "name": "",
                    "type": "uint256"
                }
            ],
            "stateMutability": "view",
            "type": "function"
        },
        {
            "inputs": [],
            "name": "owner",
            "outputs": [
                {
                    "internalType": "address",
                    "name": "",
                    "type": "address"
                }
            ],
            "stateMutability": "view",
            "type": "function"
        },
        {
            "inputs": [
                {
                    "internalType": "address",
                    "name": "",
                    "type": "address"
                }
            ],
            "name": "userCoins",
            "outputs": [
                {
                    "internalType": "uint256",
                    "name": "",
                    "type": "uint256"
                }
            ],
            "stateMutability": "view",
            "type": "function"
        }
    ],
    "bytecode": "0x608060405234801561001057600080fd5b50336000806101000a81548173ffffffffffffffffffffffffffffffffffffffff021916908373ffffffffffffffffffffffffffffffffffffffff16021790555061051f806100606000396000f3fe608060405234801561001057600080fd5b506004361061004c5760003560e01c80638da5cb5b14610051578063b8df2d601461006f578063eba53f7d1461009f578063f8b2cb4f146100bb575b600080fd5b6100596100eb565b6040516100669190610393565b60405180910390f35b610089600480360381019061008491906102d0565b61010f565b60405161009691906103ce565b60405180910390f35b6100b960048036038101906100b491906102f9565b610127565b005b6100d560048036038101906100d091906102d0565b61025d565b6040516100e291906103ce565b60405180910390f35b60008054906101000a900473ffffffffffffffffffffffffffffffffffffffff1681565b60016020528060005260406000206000915090505481565b60008054906101000a900473ffffffffffffffffffffffffffffffffffffffff1673ffffffffffffffffffffffffffffffffffffffff163373ffffffffffffffffffffffffffffffffffffffff16146101b5576040517f08c379a00000000000000000000000000000000000000000000000000000000081526004016101ac906103ae565b60405180910390fd5b80600160008473ffffffffffffffffffffffffffffffffffffffff1673ffffffffffffffffffffffffffffffffffffffff168152602001908152602001600020600082825461020491906103fa565b925050819055508173ffffffffffffffffffffffffffffffffffffffff167f6618f11353f68847dc28cc4b36a04270fab5e356fa35386e6315ba7ff205a6338260405161025191906103ce565b60405180910390a25050565b6000600160008373ffffffffffffffffffffffffffffffffffffffff1673ffffffffffffffffffffffffffffffffffffffff168152602001908152602001600020549050919050565b6000813590506102b5816104bb565b92915050565b6000813590506102ca816104d2565b92915050565b6000602082840312156102e257600080fd5b60006102f0848285016102a6565b91505092915050565b6000806040838503121561030c57600080fd5b600061031a858286016102a6565b925050602061032b858286016102bb565b9150509250929050565b61033e81610450565b82525050565b60006103516015836103e9565b91507f4f6e6c792061646d696e2063616e2072657761726400000000000000000000006000830152602082019050919050565b61038d81610482565b82525050565b60006020820190506103a86000830184610335565b92915050565b600060208201905081810360008301526103c781610344565b9050919050565b60006020820190506103e36000830184610384565b92915050565b600082825260208201905092915050565b600061040582610482565b915061041083610482565b9250827fffffffffffffffffffffffffffffffffffffffffffffffffffffffffffffffff038211156104455761044461048c565b5b828201905092915050565b600061045b82610462565b9050919050565b600073ffffffffffffffffffffffffffffffffffffffff82169050919050565b6000819050919050565b7f4e487b7100000000000000000000000000000000000000000000000000000000600052601160045260246000fd5b6104c481610450565b81146104cf57600080fd5b50565b6104db81610482565b81146104e657600080fd5b5056fea26469706673582212200e6d363a5ed5b3fd7637b2b8d79bcb80971aac82ec0c37764f40ec543dbd243b64736f6c63430008000033",
    "linkReferences": {},
    "deployedLinkReferences": {}
}