{
    "_format": "hh-sol-artifact-1",
    "contractName": "RecycleCreditToken",
    "sourceName": "contracts/recycle-credit-token.sol",
    "abi": [
        {
            "inputs": [
                {
                    "internalType": "address",
                    "name": "owner",
                    "type": "address"
                }
            ],
            "stateMutability": "nonpayable",
            "type": "constructor"
        },
        {
            "anonymous": false,
            "inputs": [
                {
                    "indexed": true,
                    "internalType": "address",
                    "name": "owner",
                    "type": "address"
                },
                {
                    "indexed": true,
                    "internalType": "address",
                    "name": "spender",
                    "type": "address"
                },
                {
                    "indexed": false,
                    "internalType": "uint256",
                    "name": "value",
                    "type": "uint256"
                }
            ],
            "name": "Approval",
            "type": "event"
        },
        {
            "anonymous": false,
            "inputs": [
                {
                    "indexed": true,
                    "internalType": "bytes32",
                    "name": "role",
                    "type": "bytes32"
                },
                {
                    "indexed": true,
                    "internalType": "bytes32",
                    "name": "previousAdminRole",
                    "type": "bytes32"
                },
                {
                    "indexed": true,
                    "internalType": "bytes32",
                    "name": "newAdminRole",
                    "type": "bytes32"
                }
            ],
            "name": "RoleAdminChanged",
            "type": "event"
        },
        {
            "anonymous": false,
            "inputs": [
                {
                    "indexed": true,
                    "internalType": "bytes32",
                    "name": "role",
                    "type": "bytes32"
                },
                {
                    "indexed": true,
                    "internalType": "address",
                    "name": "account",
                    "type": "address"
                },
                {
                    "indexed": true,
                    "internalType": "address",
                    "name": "sender",
                    "type": "address"
                }
            ],
            "name": "RoleGranted",
            "type": "event"
        },
        {
            "anonymous": false,
            "inputs": [
                {
                    "indexed": true,
                    "internalType": "bytes32",
                    "name": "role",
                    "type": "bytes32"
                },
                {
                    "indexed": true,
                    "internalType": "address",
                    "name": "account",
                    "type": "address"
                },
                {
                    "indexed": true,
                    "internalType": "address",
                    "name": "sender",
                    "type": "address"
                }
            ],
            "name": "RoleRevoked",
            "type": "event"
        },
        {
            "anonymous": false,
            "inputs": [
                {
                    "indexed": true,
                    "internalType": "address",
                    "name": "from",
                    "type": "address"
                },
                {
                    "indexed": true,
                    "internalType": "address",
                    "name": "to",
                    "type": "address"
                },
                {
                    "indexed": false,
                    "internalType": "uint256",
                    "name": "value",
                    "type": "uint256"
                }
            ],
            "name": "Transfer",
            "type": "event"
        },
        {
            "inputs": [],
            "name": "DEFAULT_ADMIN_ROLE",
            "outputs": [
                {
                    "internalType": "bytes32",
                    "name": "",
                    "type": "bytes32"
                }
            ],
            "stateMutability": "view",
            "type": "function"
        },
        {
            "inputs": [],
            "name": "MINTER_ROLE",
            "outputs": [
                {
                    "internalType": "bytes32",
                    "name": "",
                    "type": "bytes32"
                }
            ],
            "stateMutability": "view",
            "type": "function"
        },
        {
            "inputs": [
                {
                    "internalType": "address",
                    "name": "minter",
                    "type": "address"
                }
            ],
            "name": "addMinter",
            "outputs": [],
            "stateMutability": "nonpayable",
            "type": "function"
        },
        {
            "inputs": [
                {
                    "internalType": "address",
                    "name": "owner",
                    "type": "address"
                },
                {
                    "internalType": "address",
                    "name": "spender",
                    "type": "address"
                }
            ],
            "name": "allowance",
            "outputs": [
                {
                    "internalType": "uint256",
                    "name": "",
                    "type": "uint256"
                }
            ],
            "stateMutability": "view",
            "type": "function"
        },
        {
            "inputs": [
                {
                    "internalType": "address",
                    "name": "spender",
                    "type": "address"
                },
                {
                    "internalType": "uint256",
                    "name": "amount",
                    "type": "uint256"
                }
            ],
            "name": "approve",
            "outputs": [
                {
                    "internalType": "bool",
                    "name": "",
                    "type": "bool"
                }
            ],
            "stateMutability": "nonpayable",
            "type": "function"
        },
        {
            "inputs": [
                {
                    "internalType": "address",
                    "name": "account",
                    "type": "address"
                }
            ],
            "name": "balanceOf",
            "outputs": [
                {
                    "internalType": "uint256",
                    "name": "",
                    "type": "uint256"
                }
            ],
            "stateMutability": "view",
            "type": "function"
        },
        {
            "inputs": [
                {
                    "internalType": "uint256",
                    "name": "amount",
                    "type": "uint256"
                }
            ],
            "name": "burn",
            "outputs": [],
            "stateMutability": "nonpayable",
            "type": "function"
        },
        {
            "inputs": [
                {
                    "internalType": "address",
                    "name": "account",
                    "type": "address"
                },
                {
                    "internalType": "uint256",
                    "name": "amount",
                    "type": "uint256"
                }
            ],
            "name": "burnFrom",
            "outputs": [],
            "stateMutability": "nonpayable",
            "type": "function"
        },
        {
            "inputs": [],
            "name": "decimals",
            "outputs": [
                {
                    "internalType": "uint8",
                    "name": "",
                    "type": "uint8"
                }
            ],
            "stateMutability": "view",
            "type": "function"
        },
        {
            "inputs": [
                {
                    "internalType": "address",
                    "name": "spender",
                    "type": "address"
                },
                {
                    "internalType": "uint256",
                    "name": "subtractedValue",
                    "type": "uint256"
                }
            ],
            "name": "decreaseAllowance",
            "outputs": [
                {
                    "internalType": "bool",
                    "name": "",
                    "type": "bool"
                }
            ],
            "stateMutability": "nonpayable",
            "type": "function"
        },
        {
            "inputs": [
                {
                    "internalType": "bytes32",
                    "name": "role",
                    "type": "bytes32"
                }
            ],
            "name": "getRoleAdmin",
            "outputs": [
                {
                    "internalType": "bytes32",
                    "name": "",
                    "type": "bytes32"
                }
            ],
            "stateMutability": "view",
            "type": "function"
        },
        {
            "inputs": [
                {
                    "internalType": "bytes32",
                    "name": "role",
                    "type": "bytes32"
                },
                {
                    "internalType": "address",
                    "name": "account",
                    "type": "address"
                }
            ],
            "name": "grantRole",
            "outputs": [],
            "stateMutability": "nonpayable",
            "type": "function"
        },
        {
            "inputs": [
                {
                    "internalType": "bytes32",
                    "name": "role",
                    "type": "bytes32"
                },
                {
                    "internalType": "address",
                    "name": "account",
                    "type": "address"
                }
            ],
            "name": "hasRole",
            "outputs": [
                {
                    "internalType": "bool",
                    "name": "",
                    "type": "bool"
                }
            ],
            "stateMutability": "view",
            "type": "function"
        },
        {
            "inputs": [
                {
                    "internalType": "address",
                    "name": "spender",
                    "type": "address"
                },
                {
                    "internalType": "uint256",
                    "name": "addedValue",
                    "type": "uint256"
                }
            ],
            "name": "increaseAllowance",
            "outputs": [
                {
                    "internalType": "bool",
                    "name": "",
                    "type": "bool"
                }
            ],
            "stateMutability": "nonpayable",
            "type": "function"
        },
        {
            "inputs": [
                {
                    "internalType": "address",
                    "name": "to",
                    "type": "address"
                },
                {
                    "internalType": "uint256",
                    "name": "amount",
                    "type": "uint256"
                }
            ],
            "name": "mint",
            "outputs": [],
            "stateMutability": "nonpayable",
            "type": "function"
        },
        {
            "inputs": [],
            "name": "name",
            "outputs": [
                {
                    "internalType": "string",
                    "name": "",
                    "type": "string"
                }
            ],
            "stateMutability": "view",
            "type": "function"
        },
        {
            "inputs": [
                {
                    "internalType": "bytes32",
                    "name": "role",
                    "type": "bytes32"
                },
                {
                    "internalType": "address",
                    "name": "account",
                    "type": "address"
                }
            ],
            "name": "renounceRole",
            "outputs": [],
            "stateMutability": "nonpayable",
            "type": "function"
        },
        {
            "inputs": [
                {
                    "internalType": "bytes32",
                    "name": "role",
                    "type": "bytes32"
                },
                {
                    "internalType": "address",
                    "name": "account",
                    "type": "address"
                }
            ],
            "name": "revokeRole",
            "outputs": [],
            "stateMutability": "nonpayable",
            "type": "function"
        },
        {
            "inputs": [
                {
                    "internalType": "bytes4",
                    "name": "interfaceId",
                    "type": "bytes4"
                }
            ],
            "name": "supportsInterface",
            "outputs": [
                {
                    "internalType": "bool",
                    "name": "",
                    "type": "bool"
                }
            ],
            "stateMutability": "view",
            "type": "function"
        },
        {
            "inputs": [],
            "name": "symbol",
            "outputs": [
                {
                    "internalType": "string",
                    "name": "",
                    "type": "string"
                }
            ],
            "stateMutability": "view",
            "type": "function"
        },
        {
            "inputs": [],
            "name": "totalSupply",
            "outputs": [
                {
                    "internalType": "uint256",
                    "name": "",
                    "type": "uint256"
                }
            ],
            "stateMutability": "view",
            "type": "function"
        },
        {
            "inputs": [
                {
                    "internalType": "address",
                    "name": "to",
                    "type": "address"
                },
                {
                    "internalType": "uint256",
                    "name": "amount",
                    "type": "uint256"
                }
            ],
            "name": "transfer",
            "outputs": [
                {
                    "internalType": "bool",
                    "name": "",
                    "type": "bool"
                }
            ],
            "stateMutability": "nonpayable",
            "type": "function"
        },
        {
            "inputs": [
                {
                    "internalType": "address",
                    "name": "from",
                    "type": "address"
                },
                {
                    "internalType": "address",
                    "name": "to",
                    "type": "address"
                },
                {
                    "internalType": "uint256",
                    "name": "amount",
                    "type": "uint256"
                }
            ],
            "name": "transferFrom",
            "outputs": [
                {
                    "internalType": "bool",
                    "name": "",
                    "type": "bool"
                }
            ],
            "stateMutability": "nonpayable",
            "type": "function"
        }
    ],
    "bytecode": "0x608060405234801561001057600080fd5b50604051612df9380380612df98339818101604052810190610032919061045b565b6040518060400160405280600e81526020017f52656379636c65204372656469740000000000000000000000000000000000008152506040518060400160405280600381526020017f474b5400000000000000000000000000000000000000000000000000000000008152506a18d0bf423c03d8de00000083838381600390816100bc91906106d8565b5080600490816100cc91906106d8565b5050506100df818361012c60201b60201c565b505050506100f66000801b8261028e60201b60201c565b6101267f9f2df0fed2c77648de5860a4cc508cd0818c85b8b8a1ab4ceeef8d981c8956a68261028e60201b60201c565b506108b4565b600073ffffffffffffffffffffffffffffffffffffffff168273ffffffffffffffffffffffffffffffffffffffff160361019b576040517f08c379a000000000000000000000000000000000000000000000000000000000815260040161019290610807565b60405180910390fd5b6101ad6000838361037b60201b60201c565b80600260008282546101bf9190610856565b92505081905550806000808473ffffffffffffffffffffffffffffffffffffffff1673ffffffffffffffffffffffffffffffffffffffff168152602001908152602001600020600082825401925050819055508173ffffffffffffffffffffffffffffffffffffffff16600073ffffffffffffffffffffffffffffffffffffffff167fddf252ad1be2c89b69c2b068fc378daa952ba7f163c4a11628f55a4df523b3ef836040516102709190610899565b60405180910390a361028a6000838361038060201b60201c565b5050565b61029e828261038560201b60201c565b6103775760016005600084815260200190815260200160002060000160008373ffffffffffffffffffffffffffffffffffffffff1673ffffffffffffffffffffffffffffffffffffffff16815260200190815260200160002060006101000a81548160ff02191690831515021790555061031c6103f060201b60201c565b73ffffffffffffffffffffffffffffffffffffffff168173ffffffffffffffffffffffffffffffffffffffff16837f2f8788117e7eff1d82e926ec794901d17c78024a50270940304540a733656f0d60405160405180910390a45b5050565b505050565b505050565b60006005600084815260200190815260200160002060000160008373ffffffffffffffffffffffffffffffffffffffff1673ffffffffffffffffffffffffffffffffffffffff16815260200190815260200160002060009054906101000a900460ff16905092915050565b600033905090565b600080fd5b600073ffffffffffffffffffffffffffffffffffffffff82169050919050565b6000610428826103fd565b9050919050565b6104388161041d565b811461044357600080fd5b50565b6000815190506104558161042f565b92915050565b600060208284031215610471576104706103f8565b5b600061047f84828501610446565b91505092915050565b600081519050919050565b7f4e487b7100000000000000000000000000000000000000000000000000000000600052604160045260246000fd5b7f4e487b7100000000000000000000000000000000000000000000000000000000600052602260045260246000fd5b6000600282049050600182168061050957607f821691505b60208210810361051c5761051b6104c2565b5b50919050565b60008190508160005260206000209050919050565b60006020601f8301049050919050565b600082821b905092915050565b6000600883026105847fffffffffffffffffffffffffffffffffffffffffffffffffffffffffffffffff82610547565b61058e8683610547565b95508019841693508086168417925050509392505050565b6000819050919050565b6000819050919050565b60006105d56105d06105cb846105a6565b6105b0565b6105a6565b9050919050565b6000819050919050565b6105ef836105ba565b6106036105fb826105dc565b848454610554565b825550505050565b600090565b61061861060b565b6106238184846105e6565b505050565b5b818110156106475761063c600082610610565b600181019050610629565b5050565b601f82111561068c5761065d81610522565b61066684610537565b81016020851015610675578190505b61068961068185610537565b830182610628565b50505b505050565b600082821c905092915050565b60006106af60001984600802610691565b1980831691505092915050565b60006106c8838361069e565b9150826002028217905092915050565b6106e182610488565b67ffffffffffffffff8111156106fa576106f9610493565b5b61070482546104f1565b61070f82828561064b565b600060209050601f8311600181146107425760008415610730578287015190505b61073a85826106bc565b8655506107a2565b601f19841661075086610522565b60005b8281101561077857848901518255600182019150602085019450602081019050610753565b868310156107955784890151610791601f89168261069e565b8355505b6001600288020188555050505b505050505050565b600082825260208201905092915050565b7f45524332303a206d696e7420746f20746865207a65726f206164647265737300600082015250565b60006107f1601f836107aa565b91506107fc826107bb565b602082019050919050565b60006020820190508181036000830152610820816107e4565b9050919050565b7f4e487b7100000000000000000000000000000000000000000000000000000000600052601160045260246000fd5b6000610861826105a6565b915061086c836105a6565b925082820190508082111561088457610883610827565b5b92915050565b610893816105a6565b82525050565b60006020820190506108ae600083018461088a565b92915050565b612536806108c36000396000f3fe608060405234801561001057600080fd5b506004361061014d5760003560e01c806342966c68116100c3578063a217fddf1161007c578063a217fddf146103c2578063a457c2d7146103e0578063a9059cbb14610410578063d539139314610440578063d547741f1461045e578063dd62ed3e1461047a5761014d565b806342966c68146102f057806370a082311461030c57806379cc67901461033c57806391d148541461035857806395d89b4114610388578063983b2d56146103a65761014d565b8063248a9ca311610115578063248a9ca31461021e5780632f2ff15d1461024e578063313ce5671461026a57806336568abe1461028857806339509351146102a457806340c10f19146102d45761014d565b806301ffc9a71461015257806306fdde0314610182578063095ea7b3146101a057806318160ddd146101d057806323b872dd146101ee575b600080fd5b61016c600480360381019061016791906117fc565b6104aa565b6040516101799190611844565b60405180910390f35b61018a610524565b60405161019791906118ef565b60405180910390f35b6101ba60048036038101906101b591906119a5565b6105b6565b6040516101c79190611844565b60405180910390f35b6101d86105d9565b6040516101e591906119f4565b60405180910390f35b61020860048036038101906102039190611a0f565b6105e3565b6040516102159190611844565b60405180910390f35b61023860048036038101906102339190611a98565b610612565b6040516102459190611ad4565b60405180910390f35b61026860048036038101906102639190611aef565b610632565b005b610272610653565b60405161027f9190611b4b565b60405180910390f35b6102a2600480360381019061029d9190611aef565b61065c565b005b6102be60048036038101906102b991906119a5565b6106df565b6040516102cb9190611844565b60405180910390f35b6102ee60048036038101906102e991906119a5565b610716565b005b61030a60048036038101906103059190611b66565b61074f565b005b61032660048036038101906103219190611b93565b610763565b60405161033391906119f4565b60405180910390f35b610356600480360381019061035191906119a5565b6107ab565b005b610372600480360381019061036d9190611aef565b6107cb565b60405161037f9190611844565b60405180910390f35b610390610836565b60405161039d91906118ef565b60405180910390f35b6103c060048036038101906103bb9190611b93565b6108c8565b005b6103ca610903565b6040516103d79190611ad4565b60405180910390f35b6103fa60048036038101906103f591906119a5565b61090a565b6040516104079190611844565b60405180910390f35b61042a600480360381019061042591906119a5565b610981565b6040516104379190611844565b60405180910390f35b6104486109a4565b6040516104559190611ad4565b60405180910390f35b61047860048036038101906104739190611aef565b6109c8565b005b610494600480360381019061048f9190611bc0565b6109e9565b6040516104a191906119f4565b60405180910390f35b60007f7965db0b000000000000000000000000000000000000000000000000000000007bffffffffffffffffffffffffffffffffffffffffffffffffffffffff1916827bffffffffffffffffffffffffffffffffffffffffffffffffffffffff1916148061051d575061051c82610a70565b5b9050919050565b60606003805461053390611c2f565b80601f016020809104026020016040519081016040528092919081815260200182805461055f90611c2f565b80156105ac5780601f10610581576101008083540402835291602001916105ac565b820191906000526020600020905b81548152906001019060200180831161058f57829003601f168201915b5050505050905090565b6000806105c1610ada565b90506105ce818585610ae2565b600191505092915050565b6000600254905090565b6000806105ee610ada565b90506105fb858285610cab565b610606858585610d37565b60019150509392505050565b600060056000838152602001908152602001600020600101549050919050565b61063b82610612565b61064481610fad565b61064e8383610fc1565b505050565b60006012905090565b610664610ada565b73ffffffffffffffffffffffffffffffffffffffff168173ffffffffffffffffffffffffffffffffffffffff16146106d1576040517f08c379a00000000000000000000000000000000000000000000000000000000081526004016106c890611cd2565b60405180910390fd5b6106db82826110a2565b5050565b6000806106ea610ada565b905061070b8185856106fc85896109e9565b6107069190611d21565b610ae2565b600191505092915050565b7f9f2df0fed2c77648de5860a4cc508cd0818c85b8b8a1ab4ceeef8d981c8956a661074081610fad565b61074a8383611184565b505050565b61076061075a610ada565b826112da565b50565b60008060008373ffffffffffffffffffffffffffffffffffffffff1673ffffffffffffffffffffffffffffffffffffffff168152602001908152602001600020549050919050565b6107bd826107b7610ada565b83610cab565b6107c782826112da565b5050565b60006005600084815260200190815260200160002060000160008373ffffffffffffffffffffffffffffffffffffffff1673ffffffffffffffffffffffffffffffffffffffff16815260200190815260200160002060009054906101000a900460ff16905092915050565b60606004805461084590611c2f565b80601f016020809104026020016040519081016040528092919081815260200182805461087190611c2f565b80156108be5780601f10610893576101008083540402835291602001916108be565b820191906000526020600020905b8154815290600101906020018083116108a157829003601f168201915b5050505050905090565b6000801b6108d581610fad565b6108ff7f9f2df0fed2c77648de5860a4cc508cd0818c85b8b8a1ab4ceeef8d981c8956a683610632565b5050565b6000801b81565b600080610915610ada565b9050600061092382866109e9565b905083811015610968576040517f08c379a000000000000000000000000000000000000000000000000000000000815260040161095f90611dc7565b60405180910390fd5b6109758286868403610ae2565b60019250505092915050565b60008061098c610ada565b9050610999818585610d37565b600191505092915050565b7f9f2df0fed2c77648de5860a4cc508cd0818c85b8b8a1ab4ceeef8d981c8956a681565b6109d182610612565b6109da81610fad565b6109e483836110a2565b505050565b6000600160008473ffffffffffffffffffffffffffffffffffffffff1673ffffffffffffffffffffffffffffffffffffffff16815260200190815260200160002060008373ffffffffffffffffffffffffffffffffffffffff1673ffffffffffffffffffffffffffffffffffffffff16815260200190815260200160002054905092915050565b60007f01ffc9a7000000000000000000000000000000000000000000000000000000007bffffffffffffffffffffffffffffffffffffffffffffffffffffffff1916827bffffffffffffffffffffffffffffffffffffffffffffffffffffffff1916149050919050565b600033905090565b600073ffffffffffffffffffffffffffffffffffffffff168373ffffffffffffffffffffffffffffffffffffffff1603610b51576040517f08c379a0000000000000000000000000000000000000000000000000000000008152600401610b4890611e59565b60405180910390fd5b600073ffffffffffffffffffffffffffffffffffffffff168273ffffffffffffffffffffffffffffffffffffffff1603610bc0576040517f08c379a0000000000000000000000000000000000000000000000000000000008152600401610bb790611eeb565b60405180910390fd5b80600160008573ffffffffffffffffffffffffffffffffffffffff1673ffffffffffffffffffffffffffffffffffffffff16815260200190815260200160002060008473ffffffffffffffffffffffffffffffffffffffff1673ffffffffffffffffffffffffffffffffffffffff168152602001908152602001600020819055508173ffffffffffffffffffffffffffffffffffffffff168373ffffffffffffffffffffffffffffffffffffffff167f8c5be1e5ebec7d5bd14f71427d1e84f3dd0314c0f7b2291e5b200ac8c7c3b92583604051610c9e91906119f4565b60405180910390a3505050565b6000610cb784846109e9565b90507fffffffffffffffffffffffffffffffffffffffffffffffffffffffffffffffff8114610d315781811015610d23576040517f08c379a0000000000000000000000000000000000000000000000000000000008152600401610d1a90611f57565b60405180910390fd5b610d308484848403610ae2565b5b50505050565b600073ffffffffffffffffffffffffffffffffffffffff168373ffffffffffffffffffffffffffffffffffffffff1603610da6576040517f08c379a0000000000000000000000000000000000000000000000000000000008152600401610d9d90611fe9565b60405180910390fd5b600073ffffffffffffffffffffffffffffffffffffffff168273ffffffffffffffffffffffffffffffffffffffff1603610e15576040517f08c379a0000000000000000000000000000000000000000000000000000000008152600401610e0c9061207b565b60405180910390fd5b610e208383836114a7565b60008060008573ffffffffffffffffffffffffffffffffffffffff1673ffffffffffffffffffffffffffffffffffffffff16815260200190815260200160002054905081811015610ea6576040517f08c379a0000000000000000000000000000000000000000000000000000000008152600401610e9d9061210d565b60405180910390fd5b8181036000808673ffffffffffffffffffffffffffffffffffffffff1673ffffffffffffffffffffffffffffffffffffffff16815260200190815260200160002081905550816000808573ffffffffffffffffffffffffffffffffffffffff1673ffffffffffffffffffffffffffffffffffffffff168152602001908152602001600020600082825401925050819055508273ffffffffffffffffffffffffffffffffffffffff168473ffffffffffffffffffffffffffffffffffffffff167fddf252ad1be2c89b69c2b068fc378daa952ba7f163c4a11628f55a4df523b3ef84604051610f9491906119f4565b60405180910390a3610fa78484846114ac565b50505050565b610fbe81610fb9610ada565b6114b1565b50565b610fcb82826107cb565b61109e5760016005600084815260200190815260200160002060000160008373ffffffffffffffffffffffffffffffffffffffff1673ffffffffffffffffffffffffffffffffffffffff16815260200190815260200160002060006101000a81548160ff021916908315150217905550611043610ada565b73ffffffffffffffffffffffffffffffffffffffff168173ffffffffffffffffffffffffffffffffffffffff16837f2f8788117e7eff1d82e926ec794901d17c78024a50270940304540a733656f0d60405160405180910390a45b5050565b6110ac82826107cb565b156111805760006005600084815260200190815260200160002060000160008373ffffffffffffffffffffffffffffffffffffffff1673ffffffffffffffffffffffffffffffffffffffff16815260200190815260200160002060006101000a81548160ff021916908315150217905550611125610ada565b73ffffffffffffffffffffffffffffffffffffffff168173ffffffffffffffffffffffffffffffffffffffff16837ff6391f5c32d9c69d2a47ea670b442974b53935d1edc7fd64eb21e047a839171b60405160405180910390a45b5050565b600073ffffffffffffffffffffffffffffffffffffffff168273ffffffffffffffffffffffffffffffffffffffff16036111f3576040517f08c379a00000000000000000000000000000000000000000000000000000000081526004016111ea90612179565b60405180910390fd5b6111ff600083836114a7565b80600260008282546112119190611d21565b92505081905550806000808473ffffffffffffffffffffffffffffffffffffffff1673ffffffffffffffffffffffffffffffffffffffff168152602001908152602001600020600082825401925050819055508173ffffffffffffffffffffffffffffffffffffffff16600073ffffffffffffffffffffffffffffffffffffffff167fddf252ad1be2c89b69c2b068fc378daa952ba7f163c4a11628f55a4df523b3ef836040516112c291906119f4565b60405180910390a36112d6600083836114ac565b5050565b600073ffffffffffffffffffffffffffffffffffffffff168273ffffffffffffffffffffffffffffffffffffffff1603611349576040517f08c379a00000000000000000000000000000000000000000000000000000000081526004016113409061220b565b60405180910390fd5b611355826000836114a7565b60008060008473ffffffffffffffffffffffffffffffffffffffff1673ffffffffffffffffffffffffffffffffffffffff168152602001908152602001600020549050818110156113db576040517f08c379a00000000000000000000000000000000000000000000000000000000081526004016113d29061229d565b60405180910390fd5b8181036000808573ffffffffffffffffffffffffffffffffffffffff1673ffffffffffffffffffffffffffffffffffffffff1681526020019081526020016000208190555081600260008282540392505081905550600073ffffffffffffffffffffffffffffffffffffffff168373ffffffffffffffffffffffffffffffffffffffff167fddf252ad1be2c89b69c2b068fc378daa952ba7f163c4a11628f55a4df523b3ef8460405161148e91906119f4565b60405180910390a36114a2836000846114ac565b505050565b505050565b505050565b6114bb82826107cb565b611532576114c881611536565b6114d68360001c6020611563565b6040516020016114e7929190612391565b6040516020818303038152906040526040517f08c379a000000000000000000000000000000000000000000000000000000000815260040161152991906118ef565b60405180910390fd5b5050565b606061155c8273ffffffffffffffffffffffffffffffffffffffff16601460ff16611563565b9050919050565b60606000600283600261157691906123cb565b6115809190611d21565b67ffffffffffffffff8111156115995761159861240d565b5b6040519080825280601f01601f1916602001820160405280156115cb5781602001600182028036833780820191505090505b5090507f3000000000000000000000000000000000000000000000000000000000000000816000815181106116035761160261243c565b5b60200101907effffffffffffffffffffffffffffffffffffffffffffffffffffffffffffff1916908160001a9053507f7800000000000000000000000000000000000000000000000000000000000000816001815181106116675761166661243c565b5b60200101907effffffffffffffffffffffffffffffffffffffffffffffffffffffffffffff1916908160001a905350600060018460026116a791906123cb565b6116b19190611d21565b90505b6001811115611751577f3031323334353637383961626364656600000000000000000000000000000000600f8616601081106116f3576116f261243c565b5b1a60f81b82828151811061170a5761170961243c565b5b60200101907effffffffffffffffffffffffffffffffffffffffffffffffffffffffffffff1916908160001a905350600485901c94508061174a9061246b565b90506116b4565b5060008414611795576040517f08c379a000000000000000000000000000000000000000000000000000000000815260040161178c906124e0565b60405180910390fd5b8091505092915050565b600080fd5b60007fffffffff0000000000000000000000000000000000000000000000000000000082169050919050565b6117d9816117a4565b81146117e457600080fd5b50565b6000813590506117f6816117d0565b92915050565b6000602082840312156118125761181161179f565b5b6000611820848285016117e7565b91505092915050565b60008115159050919050565b61183e81611829565b82525050565b60006020820190506118596000830184611835565b92915050565b600081519050919050565b600082825260208201905092915050565b60005b8381101561189957808201518184015260208101905061187e565b60008484015250505050565b6000601f19601f8301169050919050565b60006118c18261185f565b6118cb818561186a565b93506118db81856020860161187b565b6118e4816118a5565b840191505092915050565b6000602082019050818103600083015261190981846118b6565b905092915050565b600073ffffffffffffffffffffffffffffffffffffffff82169050919050565b600061193c82611911565b9050919050565b61194c81611931565b811461195757600080fd5b50565b60008135905061196981611943565b92915050565b6000819050919050565b6119828161196f565b811461198d57600080fd5b50565b60008135905061199f81611979565b92915050565b600080604083850312156119bc576119bb61179f565b5b60006119ca8582860161195a565b92505060206119db85828601611990565b9150509250929050565b6119ee8161196f565b82525050565b6000602082019050611a0960008301846119e5565b92915050565b600080600060608486031215611a2857611a2761179f565b5b6000611a368682870161195a565b9350506020611a478682870161195a565b9250506040611a5886828701611990565b9150509250925092565b6000819050919050565b611a7581611a62565b8114611a8057600080fd5b50565b600081359050611a9281611a6c565b92915050565b600060208284031215611aae57611aad61179f565b5b6000611abc84828501611a83565b91505092915050565b611ace81611a62565b82525050565b6000602082019050611ae96000830184611ac5565b92915050565b60008060408385031215611b0657611b0561179f565b5b6000611b1485828601611a83565b9250506020611b258582860161195a565b9150509250929050565b600060ff82169050919050565b611b4581611b2f565b82525050565b6000602082019050611b606000830184611b3c565b92915050565b600060208284031215611b7c57611b7b61179f565b5b6000611b8a84828501611990565b91505092915050565b600060208284031215611ba957611ba861179f565b5b6000611bb78482850161195a565b91505092915050565b60008060408385031215611bd757611bd661179f565b5b6000611be58582860161195a565b9250506020611bf68582860161195a565b9150509250929050565b7f4e487b7100000000000000000000000000000000000000000000000000000000600052602260045260246000fd5b60006002820490506001821680611c4757607f821691505b602082108103611c5a57611c59611c00565b5b50919050565b7f416363657373436f6e74726f6c3a2063616e206f6e6c792072656e6f756e636560008201527f20726f6c657320666f722073656c660000000000000000000000000000000000602082015250565b6000611cbc602f8361186a565b9150611cc782611c60565b604082019050919050565b60006020820190508181036000830152611ceb81611caf565b9050919050565b7f4e487b7100000000000000000000000000000000000000000000000000000000600052601160045260246000fd5b6000611d2c8261196f565b9150611d378361196f565b9250828201905080821115611d4f57611d4e611cf2565b5b92915050565b7f45524332303a2064656372656173656420616c6c6f77616e63652062656c6f7760008201527f207a65726f000000000000000000000000000000000000000000000000000000602082015250565b6000611db160258361186a565b9150611dbc82611d55565b604082019050919050565b60006020820190508181036000830152611de081611da4565b9050919050565b7f45524332303a20617070726f76652066726f6d20746865207a65726f2061646460008201527f7265737300000000000000000000000000000000000000000000000000000000602082015250565b6000611e4360248361186a565b9150611e4e82611de7565b604082019050919050565b60006020820190508181036000830152611e7281611e36565b9050919050565b7f45524332303a20617070726f766520746f20746865207a65726f20616464726560008201527f7373000000000000000000000000000000000000000000000000000000000000602082015250565b6000611ed560228361186a565b9150611ee082611e79565b604082019050919050565b60006020820190508181036000830152611f0481611ec8565b9050919050565b7f45524332303a20696e73756666696369656e7420616c6c6f77616e6365000000600082015250565b6000611f41601d8361186a565b9150611f4c82611f0b565b602082019050919050565b60006020820190508181036000830152611f7081611f34565b9050919050565b7f45524332303a207472616e736665722066726f6d20746865207a65726f20616460008201527f6472657373000000000000000000000000000000000000000000000000000000602082015250565b6000611fd360258361186a565b9150611fde82611f77565b604082019050919050565b6000602082019050818103600083015261200281611fc6565b9050919050565b7f45524332303a207472616e7366657220746f20746865207a65726f206164647260008201527f6573730000000000000000000000000000000000000000000000000000000000602082015250565b600061206560238361186a565b915061207082612009565b604082019050919050565b6000602082019050818103600083015261209481612058565b9050919050565b7f45524332303a207472616e7366657220616d6f756e742065786365656473206260008201527f616c616e63650000000000000000000000000000000000000000000000000000602082015250565b60006120f760268361186a565b91506121028261209b565b604082019050919050565b60006020820190508181036000830152612126816120ea565b9050919050565b7f45524332303a206d696e7420746f20746865207a65726f206164647265737300600082015250565b6000612163601f8361186a565b915061216e8261212d565b602082019050919050565b6000602082019050818103600083015261219281612156565b9050919050565b7f45524332303a206275726e2066726f6d20746865207a65726f2061646472657360008201527f7300000000000000000000000000000000000000000000000000000000000000602082015250565b60006121f560218361186a565b915061220082612199565b604082019050919050565b60006020820190508181036000830152612224816121e8565b9050919050565b7f45524332303a206275726e20616d6f756e7420657863656564732062616c616e60008201527f6365000000000000000000000000000000000000000000000000000000000000602082015250565b600061228760228361186a565b91506122928261222b565b604082019050919050565b600060208201905081810360008301526122b68161227a565b9050919050565b600081905092915050565b7f416363657373436f6e74726f6c3a206163636f756e7420000000000000000000600082015250565b60006122fe6017836122bd565b9150612309826122c8565b601782019050919050565b600061231f8261185f565b61232981856122bd565b935061233981856020860161187b565b80840191505092915050565b7f206973206d697373696e6720726f6c6520000000000000000000000000000000600082015250565b600061237b6011836122bd565b915061238682612345565b601182019050919050565b600061239c826122f1565b91506123a88285612314565b91506123b38261236e565b91506123bf8284612314565b91508190509392505050565b60006123d68261196f565b91506123e18361196f565b92508282026123ef8161196f565b9150828204841483151761240657612405611cf2565b5b5092915050565b7f4e487b7100000000000000000000000000000000000000000000000000000000600052604160045260246000fd5b7f4e487b7100000000000000000000000000000000000000000000000000000000600052603260045260246000fd5b60006124768261196f565b91506000820361248957612488611cf2565b5b600182039050919050565b7f537472696e67733a20686578206c656e67746820696e73756666696369656e74600082015250565b60006124ca60208361186a565b91506124d582612494565b602082019050919050565b600060208201905081810360008301526124f9816124bd565b905091905056fea2646970667358221220148102248bb5bcfbb3db69877cccb4349288bb183c06602c8fdb3e05b5f2bc6a64736f6c634300081c0033",
    "linkReferences": {},
    "deployedLinkReferences": {}
}